{
  "contractName": "Donations",
  "abi": [
    {
      "inputs": [],
      "stateMutability": "nonpayable",
      "type": "constructor"
    },
    {
      "inputs": [
        {
          "internalType": "address",
          "name": "",
          "type": "address"
        }
      ],
      "name": "balances",
      "outputs": [
        {
          "internalType": "uint256",
          "name": "money",
          "type": "uint256"
        },
        {
          "internalType": "uint256",
          "name": "allAmountDonation",
          "type": "uint256"
        }
      ],
      "stateMutability": "view",
      "type": "function"
    },
    {
      "inputs": [
        {
          "internalType": "uint256",
          "name": "",
          "type": "uint256"
        }
      ],
      "name": "donatorsAll",
      "outputs": [
        {
          "internalType": "address",
          "name": "",
          "type": "address"
        }
      ],
      "stateMutability": "view",
      "type": "function"
    },
    {
      "inputs": [],
      "name": "owner",
      "outputs": [
        {
          "internalType": "address",
          "name": "",
          "type": "address"
        }
      ],
      "stateMutability": "view",
      "type": "function"
    },
    {
      "inputs": [],
      "name": "makeDonation",
      "outputs": [],
      "stateMutability": "payable",
      "type": "function"
    },
    {
      "inputs": [
        {
          "internalType": "address",
          "name": "receiver",
          "type": "address"
        },
        {
          "internalType": "uint256",
          "name": "sum",
          "type": "uint256"
        }
      ],
      "name": "transferToOwner",
      "outputs": [],
      "stateMutability": "nonpayable",
      "type": "function"
    },
    {
      "inputs": [],
      "name": "getDonators",
      "outputs": [
        {
          "internalType": "address[]",
          "name": "",
          "type": "address[]"
        }
      ],
      "stateMutability": "view",
      "type": "function"
    },
    {
      "inputs": [],
      "name": "getBalanceFund",
      "outputs": [
        {
          "internalType": "uint256",
          "name": "",
          "type": "uint256"
        }
      ],
      "stateMutability": "view",
      "type": "function"
    },
    {
      "inputs": [
        {
          "internalType": "address",
          "name": "_addr",
          "type": "address"
        }
      ],
      "name": "getBalance",
      "outputs": [
        {
          "internalType": "uint256",
          "name": "",
          "type": "uint256"
        }
      ],
      "stateMutability": "view",
      "type": "function"
    }
  ],
  "bytecode": "0x608060405234801561001057600080fd5b50336000806101000a81548173ffffffffffffffffffffffffffffffffffffffff021916908373ffffffffffffffffffffffffffffffffffffffff160217905550610aa7806100606000396000f3fe60806040526004361061007b5760003560e01c806398f641181161004e57806398f641181461011c578063bf1482fa14610159578063dd5a2f6c14610184578063f8b2cb4f146101af5761007b565b806327e235e31461008057806340ea0a94146100be5780638568523a146100c85780638da5cb5b146100f1575b600080fd5b34801561008c57600080fd5b506100a760048036038101906100a2919061070e565b6101ec565b6040516100b5929190610754565b60405180910390f35b6100c6610210565b005b3480156100d457600080fd5b506100ef60048036038101906100ea91906107a9565b610407565b005b3480156100fd57600080fd5b50610106610564565b60405161011391906107f8565b60405180910390f35b34801561012857600080fd5b50610143600480360381019061013e9190610813565b610588565b60405161015091906107f8565b60405180910390f35b34801561016557600080fd5b5061016e6105c7565b60405161017b91906108fe565b60405180910390f35b34801561019057600080fd5b50610199610655565b6040516101a69190610920565b60405180910390f35b3480156101bb57600080fd5b506101d660048036038101906101d1919061070e565b61065f565b6040516101e39190610920565b60405180910390f35b60036020528060005260406000206000915090508060000154908060010154905082565b6000600360003373ffffffffffffffffffffffffffffffffffffffff1673ffffffffffffffffffffffffffffffffffffffff16815260200190815260200160002060010154905034600360003373ffffffffffffffffffffffffffffffffffffffff1673ffffffffffffffffffffffffffffffffffffffff16815260200190815260200160002060010160008282546102a9919061096a565b925050819055506002339080600181540180825580915050600190039060005260206000200160009091909190916101000a81548173ffffffffffffffffffffffffffffffffffffffff021916908373ffffffffffffffffffffffffffffffffffffffff160217905550600060405180604001604052803481526020013373ffffffffffffffffffffffffffffffffffffffff16815250905080600360003373ffffffffffffffffffffffffffffffffffffffff1673ffffffffffffffffffffffffffffffffffffffff16815260200190815260200160002060020160008481526020019081526020016000206000820151816000015560208201518160010160006101000a81548173ffffffffffffffffffffffffffffffffffffffff021916908373ffffffffffffffffffffffffffffffffffffffff16021790555090505034600160008282546103fc919061096a565b925050819055505050565b60008054906101000a900473ffffffffffffffffffffffffffffffffffffffff1673ffffffffffffffffffffffffffffffffffffffff163373ffffffffffffffffffffffffffffffffffffffff1614610495576040517f08c379a000000000000000000000000000000000000000000000000000000000815260040161048c90610a1d565b60405180910390fd5b80600360003373ffffffffffffffffffffffffffffffffffffffff1673ffffffffffffffffffffffffffffffffffffffff16815260200190815260200160002060010160008282546104e79190610a3d565b9250508190555080600160008282546105009190610a3d565b9250508190555080600360008473ffffffffffffffffffffffffffffffffffffffff1673ffffffffffffffffffffffffffffffffffffffff1681526020019081526020016000206000016000828254610559919061096a565b925050819055505050565b60008054906101000a900473ffffffffffffffffffffffffffffffffffffffff1681565b6002818154811061059857600080fd5b906000526020600020016000915054906101000a900473ffffffffffffffffffffffffffffffffffffffff1681565b6060600280548060200260200160405190810160405280929190818152602001828054801561064b57602002820191906000526020600020905b8160009054906101000a900473ffffffffffffffffffffffffffffffffffffffff1673ffffffffffffffffffffffffffffffffffffffff1681526020019060010190808311610601575b5050505050905090565b6000600154905090565b6000600360008373ffffffffffffffffffffffffffffffffffffffff1673ffffffffffffffffffffffffffffffffffffffff168152602001908152602001600020600001549050919050565b600080fd5b600073ffffffffffffffffffffffffffffffffffffffff82169050919050565b60006106db826106b0565b9050919050565b6106eb816106d0565b81146106f657600080fd5b50565b600081359050610708816106e2565b92915050565b600060208284031215610724576107236106ab565b5b6000610732848285016106f9565b91505092915050565b6000819050919050565b61074e8161073b565b82525050565b60006040820190506107696000830185610745565b6107766020830184610745565b9392505050565b6107868161073b565b811461079157600080fd5b50565b6000813590506107a38161077d565b92915050565b600080604083850312156107c0576107bf6106ab565b5b60006107ce858286016106f9565b92505060206107df85828601610794565b9150509250929050565b6107f2816106d0565b82525050565b600060208201905061080d60008301846107e9565b92915050565b600060208284031215610829576108286106ab565b5b600061083784828501610794565b91505092915050565b600081519050919050565b600082825260208201905092915050565b6000819050602082019050919050565b610875816106d0565b82525050565b6000610887838361086c565b60208301905092915050565b6000602082019050919050565b60006108ab82610840565b6108b5818561084b565b93506108c08361085c565b8060005b838110156108f15781516108d8888261087b565b97506108e383610893565b9250506001810190506108c4565b5085935050505092915050565b6000602082019050818103600083015261091881846108a0565b905092915050565b60006020820190506109356000830184610745565b92915050565b7f4e487b7100000000000000000000000000000000000000000000000000000000600052601160045260246000fd5b60006109758261073b565b91506109808361073b565b9250827fffffffffffffffffffffffffffffffffffffffffffffffffffffffffffffffff038211156109b5576109b461093b565b5b828201905092915050565b600082825260208201905092915050565b7f4e6f206163636573730000000000000000000000000000000000000000000000600082015250565b6000610a076009836109c0565b9150610a12826109d1565b602082019050919050565b60006020820190508181036000830152610a36816109fa565b9050919050565b6000610a488261073b565b9150610a538361073b565b925082821015610a6657610a6561093b565b5b82820390509291505056fea264697066735822122086bde2def2aff5e90d56877bdacf61ee76611a9a0b70a4ba309d8ab110fb081464736f6c634300080b0033",
  "immutableReferences": {},
  "source": "// SPDX-License-Identifier: MIT\npragma solidity >=0.4.22 <0.9.0;\n\ncontract Donations {\n\n  address public owner;\n\n  constructor() {\n    owner = msg.sender;\n  }\n\n  struct Donators{\n    uint sum;\n    address from;\n  }\n\n  struct Balance {\n    uint money;\n    uint allAmountDonation;\n    mapping(uint => Donators) donations;\n  }\n  \n  uint allAmount;\n  address [] public  donatorsAll; \n\n  mapping(address => Balance) public balances;\n\n  // \n  function makeDonation() public payable{\n    \n    uint donationsNum = balances[msg.sender].allAmountDonation;\n    balances[msg.sender].allAmountDonation += msg.value;\n    \n    donatorsAll.push(msg.sender);\n    \n    Donators memory newDonators = Donators(\n      msg.value,\n      msg.sender\n    );\n\n    balances[msg.sender].donations[donationsNum] = newDonators;\n\n    allAmount += msg.value;\n  }\n \n  //       (   )\n  function transferToOwner(address receiver, uint sum) external{ \n    require(msg.sender == owner, \"No access\");\n\n    balances[msg.sender].allAmountDonation -= sum;\n    allAmount -= sum;\n\n    balances[receiver].money += sum;\n  }\n\n  //     \n  function getDonators() public view returns (address[] memory){\n    return donatorsAll;\n  }\n\n  //  \n  function getBalanceFund() public view returns(uint){\n    return allAmount;\n  }\n\n  //    \n  function getBalance(address _addr) public view returns(uint){\n    return balances[_addr].money;\n  }\n}\n",
  "sourcePath": "C:\\Users\\inin_\\Documents\\VS Code\\Donations\\contracts\\Donations.sol",
  "compiler": {
    "name": "solc",
    "version": "0.8.11+commit.d7f03943.Emscripten.clang"
  },
  "schemaVersion": "3.4.4",
  "updatedAt": "2022-03-03T17:11:32.581Z",
  "devdoc": {
    "kind": "dev",
    "methods": {},
    "version": 1
  },
  "userdoc": {
    "kind": "user",
    "methods": {},
    "version": 1
  }
}