{
  "contractName": "Donations",
  "abi": [
    {
      "inputs": [],
      "stateMutability": "nonpayable",
      "type": "constructor"
    },
    {
      "inputs": [
        {
          "internalType": "address",
          "name": "",
          "type": "address"
        }
      ],
      "name": "balances",
      "outputs": [
        {
          "internalType": "uint256",
          "name": "money",
          "type": "uint256"
        },
        {
          "internalType": "uint256",
          "name": "allAmountDonation",
          "type": "uint256"
        }
      ],
      "stateMutability": "view",
      "type": "function"
    },
    {
      "inputs": [
        {
          "internalType": "uint256",
          "name": "",
          "type": "uint256"
        }
      ],
      "name": "donatorsAll",
      "outputs": [
        {
          "internalType": "address",
          "name": "",
          "type": "address"
        }
      ],
      "stateMutability": "view",
      "type": "function"
    },
    {
      "inputs": [],
      "name": "owner",
      "outputs": [
        {
          "internalType": "address",
          "name": "",
          "type": "address"
        }
      ],
      "stateMutability": "view",
      "type": "function"
    },
    {
      "inputs": [],
      "name": "makeDonation",
      "outputs": [],
      "stateMutability": "payable",
      "type": "function"
    },
    {
      "inputs": [
        {
          "internalType": "address",
          "name": "receiver",
          "type": "address"
        },
        {
          "internalType": "uint256",
          "name": "sum",
          "type": "uint256"
        }
      ],
      "name": "transferToOwner",
      "outputs": [],
      "stateMutability": "nonpayable",
      "type": "function"
    },
    {
      "inputs": [],
      "name": "getDonators",
      "outputs": [
        {
          "internalType": "address[]",
          "name": "",
          "type": "address[]"
        }
      ],
      "stateMutability": "view",
      "type": "function"
    },
    {
      "inputs": [],
      "name": "getBalanceFund",
      "outputs": [
        {
          "internalType": "uint256",
          "name": "",
          "type": "uint256"
        }
      ],
      "stateMutability": "view",
      "type": "function"
    },
    {
      "inputs": [
        {
          "internalType": "address",
          "name": "_addr",
          "type": "address"
        }
      ],
      "name": "getBalance",
      "outputs": [
        {
          "internalType": "uint256",
          "name": "",
          "type": "uint256"
        }
      ],
      "stateMutability": "view",
      "type": "function"
    }
  ],
  "bytecode": "0x608060405234801561001057600080fd5b50336000806101000a81548173ffffffffffffffffffffffffffffffffffffffff021916908373ffffffffffffffffffffffffffffffffffffffff1602179055506109fc806100606000396000f3fe60806040526004361061007b5760003560e01c806398f641181161004e57806398f641181461011c578063bf1482fa14610159578063dd5a2f6c14610184578063f8b2cb4f146101af5761007b565b806327e235e31461008057806340ea0a94146100be5780638568523a146100c85780638da5cb5b146100f1575b600080fd5b34801561008c57600080fd5b506100a760048036038101906100a29190610697565b6101ec565b6040516100b59291906106dd565b60405180910390f35b6100c6610210565b005b3480156100d457600080fd5b506100ef60048036038101906100ea9190610732565b610402565b005b3480156100fd57600080fd5b506101066104ed565b6040516101139190610781565b60405180910390f35b34801561012857600080fd5b50610143600480360381019061013e919061079c565b610511565b6040516101509190610781565b60405180910390f35b34801561016557600080fd5b5061016e610550565b60405161017b9190610887565b60405180910390f35b34801561019057600080fd5b506101996105de565b6040516101a691906108a9565b60405180910390f35b3480156101bb57600080fd5b506101d660048036038101906101d19190610697565b6105e8565b6040516101e391906108a9565b60405180910390f35b60036020528060005260406000206000915090508060000154908060010154905082565b6000600360003373ffffffffffffffffffffffffffffffffffffffff1673ffffffffffffffffffffffffffffffffffffffff16815260200190815260200160002060010154905034600360003373ffffffffffffffffffffffffffffffffffffffff1673ffffffffffffffffffffffffffffffffffffffff16815260200190815260200160002060010160008282546102a991906108f3565b925050819055506002339080600181540180825580915050600190039060005260206000200160009091909190916101000a81548173ffffffffffffffffffffffffffffffffffffffff021916908373ffffffffffffffffffffffffffffffffffffffff160217905550600060405180604001604052803481526020013373ffffffffffffffffffffffffffffffffffffffff16815250905080600360003373ffffffffffffffffffffffffffffffffffffffff1673ffffffffffffffffffffffffffffffffffffffff16815260200190815260200160002060020160008481526020019081526020016000206000820151816000015560208201518160010160006101000a81548173ffffffffffffffffffffffffffffffffffffffff021916908373ffffffffffffffffffffffffffffffffffffffff160217905550905050600154346103f891906108f3565b6001819055505050565b60008054906101000a900473ffffffffffffffffffffffffffffffffffffffff1673ffffffffffffffffffffffffffffffffffffffff163373ffffffffffffffffffffffffffffffffffffffff1614610490576040517f08c379a0000000000000000000000000000000000000000000000000000000008152600401610487906109a6565b60405180910390fd5b80600360008473ffffffffffffffffffffffffffffffffffffffff1673ffffffffffffffffffffffffffffffffffffffff16815260200190815260200160002060000160008282546104e291906108f3565b925050819055505050565b60008054906101000a900473ffffffffffffffffffffffffffffffffffffffff1681565b6002818154811061052157600080fd5b906000526020600020016000915054906101000a900473ffffffffffffffffffffffffffffffffffffffff1681565b606060028054806020026020016040519081016040528092919081815260200182805480156105d457602002820191906000526020600020905b8160009054906101000a900473ffffffffffffffffffffffffffffffffffffffff1673ffffffffffffffffffffffffffffffffffffffff168152602001906001019080831161058a575b5050505050905090565b6000600154905090565b6000600360008373ffffffffffffffffffffffffffffffffffffffff1673ffffffffffffffffffffffffffffffffffffffff168152602001908152602001600020600001549050919050565b600080fd5b600073ffffffffffffffffffffffffffffffffffffffff82169050919050565b600061066482610639565b9050919050565b61067481610659565b811461067f57600080fd5b50565b6000813590506106918161066b565b92915050565b6000602082840312156106ad576106ac610634565b5b60006106bb84828501610682565b91505092915050565b6000819050919050565b6106d7816106c4565b82525050565b60006040820190506106f260008301856106ce565b6106ff60208301846106ce565b9392505050565b61070f816106c4565b811461071a57600080fd5b50565b60008135905061072c81610706565b92915050565b6000806040838503121561074957610748610634565b5b600061075785828601610682565b92505060206107688582860161071d565b9150509250929050565b61077b81610659565b82525050565b60006020820190506107966000830184610772565b92915050565b6000602082840312156107b2576107b1610634565b5b60006107c08482850161071d565b91505092915050565b600081519050919050565b600082825260208201905092915050565b6000819050602082019050919050565b6107fe81610659565b82525050565b600061081083836107f5565b60208301905092915050565b6000602082019050919050565b6000610834826107c9565b61083e81856107d4565b9350610849836107e5565b8060005b8381101561087a5781516108618882610804565b975061086c8361081c565b92505060018101905061084d565b5085935050505092915050565b600060208201905081810360008301526108a18184610829565b905092915050565b60006020820190506108be60008301846106ce565b92915050565b7f4e487b7100000000000000000000000000000000000000000000000000000000600052601160045260246000fd5b60006108fe826106c4565b9150610909836106c4565b9250827fffffffffffffffffffffffffffffffffffffffffffffffffffffffffffffffff0382111561093e5761093d6108c4565b5b828201905092915050565b600082825260208201905092915050565b7f4e6f206163636573730000000000000000000000000000000000000000000000600082015250565b6000610990600983610949565b915061099b8261095a565b602082019050919050565b600060208201905081810360008301526109bf81610983565b905091905056fea26469706673582212202bfc9854de21363a137f55a7ca1b8bd6d814ebeae5a9ed12a63e859750265a1b64736f6c634300080b0033",
  "immutableReferences": {},
  "source": "// SPDX-License-Identifier: MIT\npragma solidity >=0.4.22 <0.9.0;\n\ncontract Donations {\n\n  address public owner;\n\n  constructor() {\n    owner = msg.sender;\n  }\n\n  struct Donators{\n    uint sum;\n    address from;\n  }\n\n  struct Balance {\n    uint money;\n    uint allAmountDonation;\n    mapping(uint => Donators) donations;\n  }\n  \n  uint allAmount;\n  address [] public  donatorsAll; \n\n  mapping(address => Balance) public balances;\n\n  // \n  function makeDonation() public payable{\n    \n    uint donationsNum = balances[msg.sender].allAmountDonation;\n    balances[msg.sender].allAmountDonation += msg.value;\n    \n    donatorsAll.push(msg.sender);\n    \n    Donators memory newDonators = Donators(\n      msg.value,\n      msg.sender\n    );\n\n    balances[msg.sender].donations[donationsNum] = newDonators;\n\n    allAmount = msg.value + allAmount;\n  }\n \n  //       (   )\n  function transferToOwner(address receiver, uint sum) external{ \n    require(msg.sender == owner, \"No access\");\n    balances[receiver].money += sum;\n  }\n\n  //     \n  function getDonators() public view returns (address[] memory){\n    return donatorsAll;\n  }\n\n  //  \n  function getBalanceFund() public view returns(uint){\n    return allAmount;\n  }\n\n  //    \n  function getBalance(address _addr) public view returns(uint){\n    return balances[_addr].money;\n  }\n}\n",
  "sourcePath": "C:\\Users\\inin_\\Documents\\VS Code\\Donations\\contracts\\Donations.sol",
  "compiler": {
    "name": "solc",
    "version": "0.8.11+commit.d7f03943.Emscripten.clang"
  },
  "schemaVersion": "3.4.4",
  "updatedAt": "2022-03-03T09:09:43.343Z",
  "devdoc": {
    "kind": "dev",
    "methods": {},
    "version": 1
  },
  "userdoc": {
    "kind": "user",
    "methods": {},
    "version": 1
  }
}