{
  "contractName": "Donations",
  "abi": [
    {
      "inputs": [],
      "stateMutability": "nonpayable",
      "type": "constructor"
    },
    {
      "inputs": [
        {
          "internalType": "address",
          "name": "",
          "type": "address"
        }
      ],
      "name": "donators",
      "outputs": [
        {
          "internalType": "uint256",
          "name": "",
          "type": "uint256"
        }
      ],
      "stateMutability": "view",
      "type": "function"
    },
    {
      "inputs": [
        {
          "internalType": "uint256",
          "name": "",
          "type": "uint256"
        }
      ],
      "name": "donatorsAll",
      "outputs": [
        {
          "internalType": "address",
          "name": "",
          "type": "address"
        }
      ],
      "stateMutability": "view",
      "type": "function"
    },
    {
      "inputs": [],
      "name": "owner",
      "outputs": [
        {
          "internalType": "address payable",
          "name": "",
          "type": "address"
        }
      ],
      "stateMutability": "view",
      "type": "function"
    },
    {
      "inputs": [],
      "name": "makeDonation",
      "outputs": [],
      "stateMutability": "payable",
      "type": "function"
    },
    {
      "inputs": [],
      "name": "transferToOwner",
      "outputs": [],
      "stateMutability": "nonpayable",
      "type": "function"
    },
    {
      "inputs": [],
      "name": "getDonators",
      "outputs": [
        {
          "internalType": "address[]",
          "name": "",
          "type": "address[]"
        }
      ],
      "stateMutability": "view",
      "type": "function"
    },
    {
      "inputs": [],
      "name": "getAmount",
      "outputs": [
        {
          "internalType": "uint256",
          "name": "",
          "type": "uint256"
        }
      ],
      "stateMutability": "view",
      "type": "function"
    }
  ],
  "bytecode": "0x608060405234801561001057600080fd5b503373ffffffffffffffffffffffffffffffffffffffff1660008054906101000a90505050610873806100446000396000f3fe6080604052600436106100705760003560e01c806398f641181161004e57806398f64118146100c1578063bf1482fa146100fe578063d24f8cdd14610129578063d321fe291461016657610070565b80632d90ae941461007557806340ea0a941461008c5780638da5cb5b14610096575b600080fd5b34801561008157600080fd5b5061008a610191565b005b610094610252565b005b3480156100a257600080fd5b506100ab6103ca565b6040516100b8919061051e565b60405180910390f35b3480156100cd57600080fd5b506100e860048036038101906100e39190610574565b6103ee565b6040516100f591906105c2565b60405180910390f35b34801561010a57600080fd5b5061011361042d565b604051610120919061069b565b60405180910390f35b34801561013557600080fd5b50610150600480360381019061014b91906106e9565b6104bb565b60405161015d9190610725565b60405180910390f35b34801561017257600080fd5b5061017b6104d3565b6040516101889190610725565b60405180910390f35b60008054906101000a900473ffffffffffffffffffffffffffffffffffffffff1673ffffffffffffffffffffffffffffffffffffffff163373ffffffffffffffffffffffffffffffffffffffff16146101e957600080fd5b60008054906101000a900473ffffffffffffffffffffffffffffffffffffffff1673ffffffffffffffffffffffffffffffffffffffff166108fc479081150290604051600060405180830381858888f1935050505015801561024f573d6000803e3d6000fd5b50565b66038d7ea4c6800034101561026657600080fd5b34600154610274919061076f565b60018190555034600260003373ffffffffffffffffffffffffffffffffffffffff1673ffffffffffffffffffffffffffffffffffffffff16815260200190815260200160002060008282546102c9919061076f565b9250508190555060005b60038054905081116103c757600381815481106102f3576102f26107c5565b5b9060005260206000200160009054906101000a900473ffffffffffffffffffffffffffffffffffffffff1673ffffffffffffffffffffffffffffffffffffffff163373ffffffffffffffffffffffffffffffffffffffff16146103b4576003339080600181540180825580915050600190039060005260206000200160009091909190916101000a81548173ffffffffffffffffffffffffffffffffffffffff021916908373ffffffffffffffffffffffffffffffffffffffff1602179055505b80806103bf906107f4565b9150506102d3565b50565b60008054906101000a900473ffffffffffffffffffffffffffffffffffffffff1681565b600381815481106103fe57600080fd5b906000526020600020016000915054906101000a900473ffffffffffffffffffffffffffffffffffffffff1681565b606060038054806020026020016040519081016040528092919081815260200182805480156104b157602002820191906000526020600020905b8160009054906101000a900473ffffffffffffffffffffffffffffffffffffffff1673ffffffffffffffffffffffffffffffffffffffff1681526020019060010190808311610467575b5050505050905090565b60026020528060005260406000206000915090505481565b6000600154905090565b600073ffffffffffffffffffffffffffffffffffffffff82169050919050565b6000610508826104dd565b9050919050565b610518816104fd565b82525050565b6000602082019050610533600083018461050f565b92915050565b600080fd5b6000819050919050565b6105518161053e565b811461055c57600080fd5b50565b60008135905061056e81610548565b92915050565b60006020828403121561058a57610589610539565b5b60006105988482850161055f565b91505092915050565b60006105ac826104dd565b9050919050565b6105bc816105a1565b82525050565b60006020820190506105d760008301846105b3565b92915050565b600081519050919050565b600082825260208201905092915050565b6000819050602082019050919050565b610612816105a1565b82525050565b60006106248383610609565b60208301905092915050565b6000602082019050919050565b6000610648826105dd565b61065281856105e8565b935061065d836105f9565b8060005b8381101561068e5781516106758882610618565b975061068083610630565b925050600181019050610661565b5085935050505092915050565b600060208201905081810360008301526106b5818461063d565b905092915050565b6106c6816105a1565b81146106d157600080fd5b50565b6000813590506106e3816106bd565b92915050565b6000602082840312156106ff576106fe610539565b5b600061070d848285016106d4565b91505092915050565b61071f8161053e565b82525050565b600060208201905061073a6000830184610716565b92915050565b7f4e487b7100000000000000000000000000000000000000000000000000000000600052601160045260246000fd5b600061077a8261053e565b91506107858361053e565b9250827fffffffffffffffffffffffffffffffffffffffffffffffffffffffffffffffff038211156107ba576107b9610740565b5b828201905092915050565b7f4e487b7100000000000000000000000000000000000000000000000000000000600052603260045260246000fd5b60006107ff8261053e565b91507fffffffffffffffffffffffffffffffffffffffffffffffffffffffffffffffff82141561083257610831610740565b5b60018201905091905056fea2646970667358221220c9ad286d3e3fe27547cc1aae18c94f18ee2a407de83e290468910356ddddfdef64736f6c634300080b0033",
  "immutableReferences": {},
  "source": "// SPDX-License-Identifier: MIT\npragma solidity >=0.4.22 <0.9.0;\n\ncontract Donations {\n\n  address payable public owner; //  \n  uint Amount;\n  mapping(address => uint) public donators;\n  address [] public donatorsAll; // TO DO: wrong working\n\n  constructor(){\n    owner == msg.sender;  //  \n  }\n\n  //    \n  function makeDonation() public payable{\n    require(msg.value >= .001 ether);\n    Amount = Amount + msg.value;\n    donators[msg.sender] += msg.value;\n\n    //          donatorsAll\n    for (uint256 i = 0; i <= donatorsAll.length; i++) {\n      if(msg.sender != donatorsAll[i])\n      donatorsAll.push(msg.sender);\n    }\n    \n\n  }\n  //    \n  function transferToOwner() external{\n    require(msg.sender == owner);         //    \n    owner.transfer(address(this).balance);\n  }\n  \n  // TO DO: wrong working\n  //     \n  function getDonators() public view returns (address[] memory){\n    return donatorsAll;\n  }\n\n  //    \n  function getAmount() public view returns (uint){\n    return Amount;\n  }\n\n\n}\n",
  "sourcePath": "C:\\Users\\inin_\\Documents\\VS Code\\Donations\\contracts\\Donations.sol",
  "compiler": {
    "name": "solc",
    "version": "0.8.11+commit.d7f03943.Emscripten.clang"
  },
  "schemaVersion": "3.4.4",
  "updatedAt": "2022-02-26T06:59:20.342Z",
  "devdoc": {
    "kind": "dev",
    "methods": {},
    "version": 1
  },
  "userdoc": {
    "kind": "user",
    "methods": {},
    "version": 1
  }
}