{
  "contractName": "Donations",
  "abi": [
    {
      "inputs": [],
      "stateMutability": "nonpayable",
      "type": "constructor"
    },
    {
      "inputs": [
        {
          "internalType": "address",
          "name": "",
          "type": "address"
        }
      ],
      "name": "balances",
      "outputs": [
        {
          "internalType": "uint256",
          "name": "allAmountUser",
          "type": "uint256"
        }
      ],
      "stateMutability": "view",
      "type": "function"
    },
    {
      "inputs": [
        {
          "internalType": "uint256",
          "name": "",
          "type": "uint256"
        }
      ],
      "name": "donatorsAll",
      "outputs": [
        {
          "internalType": "address",
          "name": "",
          "type": "address"
        }
      ],
      "stateMutability": "view",
      "type": "function"
    },
    {
      "inputs": [],
      "name": "owner",
      "outputs": [
        {
          "internalType": "address payable",
          "name": "",
          "type": "address"
        }
      ],
      "stateMutability": "view",
      "type": "function"
    },
    {
      "inputs": [],
      "name": "makeDonation",
      "outputs": [],
      "stateMutability": "payable",
      "type": "function"
    },
    {
      "inputs": [
        {
          "internalType": "address",
          "name": "receiver",
          "type": "address"
        },
        {
          "internalType": "uint256",
          "name": "sum",
          "type": "uint256"
        }
      ],
      "name": "transferToOwner",
      "outputs": [],
      "stateMutability": "nonpayable",
      "type": "function"
    },
    {
      "inputs": [],
      "name": "getDonators",
      "outputs": [
        {
          "internalType": "address[]",
          "name": "",
          "type": "address[]"
        }
      ],
      "stateMutability": "view",
      "type": "function"
    },
    {
      "inputs": [],
      "name": "getBalanceFund",
      "outputs": [
        {
          "internalType": "uint256",
          "name": "",
          "type": "uint256"
        }
      ],
      "stateMutability": "view",
      "type": "function"
    }
  ],
  "bytecode": "0x608060405234801561001057600080fd5b503373ffffffffffffffffffffffffffffffffffffffff1660008054906101000a90505050610941806100446000396000f3fe6080604052600436106100705760003560e01c80638da5cb5b1161004e5780638da5cb5b146100e557806398f6411814610110578063bf1482fa1461014d578063dd5a2f6c1461017857610070565b806327e235e31461007557806340ea0a94146100b25780638568523a146100bc575b600080fd5b34801561008157600080fd5b5061009c600480360381019061009791906105c9565b6101a3565b6040516100a9919061060f565b60405180910390f35b6100ba6101c1565b005b3480156100c857600080fd5b506100e360048036038101906100de9190610656565b6103b3565b005b3480156100f157600080fd5b506100fa61046b565b60405161010791906106b7565b60405180910390f35b34801561011c57600080fd5b50610137600480360381019061013291906106d2565b61048f565b604051610144919061070e565b60405180910390f35b34801561015957600080fd5b506101626104ce565b60405161016f91906107e7565b60405180910390f35b34801561018457600080fd5b5061018d61055c565b60405161019a919061060f565b60405180910390f35b60036020528060005260406000206000915090508060000154905081565b6000600360003373ffffffffffffffffffffffffffffffffffffffff1673ffffffffffffffffffffffffffffffffffffffff16815260200190815260200160002060000154905034600360003373ffffffffffffffffffffffffffffffffffffffff1673ffffffffffffffffffffffffffffffffffffffff168152602001908152602001600020600001600082825461025a9190610838565b925050819055506002339080600181540180825580915050600190039060005260206000200160009091909190916101000a81548173ffffffffffffffffffffffffffffffffffffffff021916908373ffffffffffffffffffffffffffffffffffffffff160217905550600060405180604001604052803481526020013373ffffffffffffffffffffffffffffffffffffffff16815250905080600360003373ffffffffffffffffffffffffffffffffffffffff1673ffffffffffffffffffffffffffffffffffffffff16815260200190815260200160002060010160008481526020019081526020016000206000820151816000015560208201518160010160006101000a81548173ffffffffffffffffffffffffffffffffffffffff021916908373ffffffffffffffffffffffffffffffffffffffff160217905550905050600154346103a99190610838565b6001819055505050565b789f4f2726179a224501d762422c946590d91000000000000000811061040e576040517f08c379a0000000000000000000000000000000000000000000000000000000008152600401610405906108eb565b60405180910390fd5b80600360008473ffffffffffffffffffffffffffffffffffffffff1673ffffffffffffffffffffffffffffffffffffffff16815260200190815260200160002060000160008282546104609190610838565b925050819055505050565b60008054906101000a900473ffffffffffffffffffffffffffffffffffffffff1681565b6002818154811061049f57600080fd5b906000526020600020016000915054906101000a900473ffffffffffffffffffffffffffffffffffffffff1681565b6060600280548060200260200160405190810160405280929190818152602001828054801561055257602002820191906000526020600020905b8160009054906101000a900473ffffffffffffffffffffffffffffffffffffffff1673ffffffffffffffffffffffffffffffffffffffff1681526020019060010190808311610508575b5050505050905090565b6000600154905090565b600080fd5b600073ffffffffffffffffffffffffffffffffffffffff82169050919050565b60006105968261056b565b9050919050565b6105a68161058b565b81146105b157600080fd5b50565b6000813590506105c38161059d565b92915050565b6000602082840312156105df576105de610566565b5b60006105ed848285016105b4565b91505092915050565b6000819050919050565b610609816105f6565b82525050565b60006020820190506106246000830184610600565b92915050565b610633816105f6565b811461063e57600080fd5b50565b6000813590506106508161062a565b92915050565b6000806040838503121561066d5761066c610566565b5b600061067b858286016105b4565b925050602061068c85828601610641565b9150509250929050565b60006106a18261056b565b9050919050565b6106b181610696565b82525050565b60006020820190506106cc60008301846106a8565b92915050565b6000602082840312156106e8576106e7610566565b5b60006106f684828501610641565b91505092915050565b6107088161058b565b82525050565b600060208201905061072360008301846106ff565b92915050565b600081519050919050565b600082825260208201905092915050565b6000819050602082019050919050565b61075e8161058b565b82525050565b60006107708383610755565b60208301905092915050565b6000602082019050919050565b600061079482610729565b61079e8185610734565b93506107a983610745565b8060005b838110156107da5781516107c18882610764565b97506107cc8361077c565b9250506001810190506107ad565b5085935050505092915050565b600060208201905081810360008301526108018184610789565b905092915050565b7f4e487b7100000000000000000000000000000000000000000000000000000000600052601160045260246000fd5b6000610843826105f6565b915061084e836105f6565b9250827fffffffffffffffffffffffffffffffffffffffffffffffffffffffffffffffff0382111561088357610882610809565b5b828201905092915050565b600082825260208201905092915050565b7f746f6f206d756368206d6f6e6579000000000000000000000000000000000000600082015250565b60006108d5600e8361088e565b91506108e08261089f565b602082019050919050565b60006020820190508181036000830152610904816108c8565b905091905056fea2646970667358221220bb1fb94dc5b2e68166370b2cedc9d28814442cc33d1891f4273d7987e4c6bdd464736f6c634300080b0033",
  "immutableReferences": {},
  "source": "// SPDX-License-Identifier: MIT\npragma solidity >=0.4.22 <0.9.0;\n\ncontract Donations {\n\n  address payable public owner;\n  constructor() {\n    owner == msg.sender;\n  }\n\n  struct Donators{\n    uint sum;\n    address from;\n  }\n\n  struct Balance {\n    uint allAmountUser;\n    mapping(uint => Donators) donations;\n  }\n\n  uint allAmount;\n  address [] public  donatorsAll; \n\n  mapping(address => Balance) public balances;\n\n  // \n  function makeDonation() public payable{\n    \n    uint donationsNum = balances[msg.sender].allAmountUser;\n    balances[msg.sender].allAmountUser += msg.value;\n\n    donatorsAll.push(msg.sender);\n\n    Donators memory newDonators = Donators(\n      msg.value,\n      msg.sender\n    );\n\n    balances[msg.sender].donations[donationsNum] = newDonators;\n\n    allAmount = msg.value + allAmount;\n  }\n \n  //       (   )\n  function transferToOwner(address receiver, uint sum) external{ \n    //require(msg.sender == owner, \"No access\");\n    require(sum < 1e60,\"too much money\" );\n    balances[receiver].allAmountUser += sum;\n  }\n\n  //     \n  function getDonators() public view returns (address[] memory){\n    return donatorsAll;\n  }\n\n  //  \n  function getBalanceFund() public view returns(uint){\n    return allAmount;\n  }\n}\n",
  "sourcePath": "C:\\Users\\inin_\\Documents\\VS Code\\Donations\\contracts\\Donations.sol",
  "compiler": {
    "name": "solc",
    "version": "0.8.11+commit.d7f03943.Emscripten.clang"
  },
  "schemaVersion": "3.4.4",
  "updatedAt": "2022-03-01T07:19:46.418Z",
  "devdoc": {
    "kind": "dev",
    "methods": {},
    "version": 1
  },
  "userdoc": {
    "kind": "user",
    "methods": {},
    "version": 1
  }
}