{
  "contractName": "Donations",
  "abi": [
    {
      "inputs": [],
      "stateMutability": "nonpayable",
      "type": "constructor"
    },
    {
      "inputs": [],
      "name": "owner",
      "outputs": [
        {
          "internalType": "address",
          "name": "",
          "type": "address"
        }
      ],
      "stateMutability": "view",
      "type": "function",
      "constant": true
    },
    {
      "inputs": [],
      "name": "makeDonation",
      "outputs": [],
      "stateMutability": "payable",
      "type": "function",
      "payable": true
    },
    {
      "inputs": [
        {
          "internalType": "address payable",
          "name": "_to",
          "type": "address"
        }
      ],
      "name": "transferToOwner",
      "outputs": [],
      "stateMutability": "nonpayable",
      "type": "function"
    },
    {
      "inputs": [
        {
          "internalType": "uint256",
          "name": "_index",
          "type": "uint256"
        }
      ],
      "name": "getDonators",
      "outputs": [
        {
          "components": [
            {
              "internalType": "uint256",
              "name": "sum",
              "type": "uint256"
            },
            {
              "internalType": "uint256",
              "name": "sumAll",
              "type": "uint256"
            },
            {
              "internalType": "address",
              "name": "from",
              "type": "address"
            },
            {
              "internalType": "uint256",
              "name": "timestamp",
              "type": "uint256"
            }
          ],
          "internalType": "struct Donations.Donation",
          "name": "",
          "type": "tuple"
        }
      ],
      "stateMutability": "view",
      "type": "function",
      "constant": true
    },
    {
      "inputs": [],
      "name": "getBalanceFund",
      "outputs": [
        {
          "internalType": "uint256",
          "name": "",
          "type": "uint256"
        }
      ],
      "stateMutability": "view",
      "type": "function",
      "constant": true
    },
    {
      "inputs": [
        {
          "internalType": "address",
          "name": "_addr",
          "type": "address"
        }
      ],
      "name": "getDonatingAmount",
      "outputs": [
        {
          "internalType": "uint256",
          "name": "",
          "type": "uint256"
        }
      ],
      "stateMutability": "view",
      "type": "function",
      "constant": true
    },
    {
      "inputs": [
        {
          "internalType": "address",
          "name": "_addr",
          "type": "address"
        }
      ],
      "name": "getBalance",
      "outputs": [
        {
          "internalType": "uint256",
          "name": "",
          "type": "uint256"
        }
      ],
      "stateMutability": "view",
      "type": "function",
      "constant": true
    }
  ],
  "bytecode": "0x608060405234801561001057600080fd5b5033600160006101000a81548173ffffffffffffffffffffffffffffffffffffffff021916908373ffffffffffffffffffffffffffffffffffffffff1602179055506109fe806100616000396000f3fe6080604052600436106100705760003560e01c80638da5cb5b1161004e5780638da5cb5b146100e5578063b31c492914610110578063dd5a2f6c1461014d578063f8b2cb4f1461017857610070565b80630fa91fa91461007557806340ea0a94146100b2578063812d504d146100bc575b600080fd5b34801561008157600080fd5b5061009c60048036038101906100979190610626565b6101b5565b6040516100a991906106f8565b60405180910390f35b6100ba6102ac565b005b3480156100c857600080fd5b506100e360048036038101906100de9190610751565b610430565b005b3480156100f157600080fd5b506100fa610511565b604051610107919061078d565b60405180910390f35b34801561011c57600080fd5b50610137600480360381019061013291906107d4565b610537565b6040516101449190610810565b60405180910390f35b34801561015957600080fd5b50610162610583565b60405161016f9190610810565b60405180910390f35b34801561018457600080fd5b5061019f600480360381019061019a91906107d4565b61058c565b6040516101ac9190610810565b60405180910390f35b6101bd6105ad565b6002805490508210610204576040517f08c379a00000000000000000000000000000000000000000000000000000000081526004016101fb90610888565b60405180910390fd5b60028281548110610218576102176108a8565b5b906000526020600020906004020160405180608001604052908160008201548152602001600182015481526020016002820160009054906101000a900473ffffffffffffffffffffffffffffffffffffffff1673ffffffffffffffffffffffffffffffffffffffff1673ffffffffffffffffffffffffffffffffffffffff1681526020016003820154815250509050919050565b34600360003373ffffffffffffffffffffffffffffffffffffffff1673ffffffffffffffffffffffffffffffffffffffff16815260200190815260200160002060010160008282546102fe9190610906565b9250508190555060006040518060800160405280348152602001600360003373ffffffffffffffffffffffffffffffffffffffff1673ffffffffffffffffffffffffffffffffffffffff1681526020019081526020016000206001015481526020013373ffffffffffffffffffffffffffffffffffffffff1681526020014281525090506002819080600181540180825580915050600190039060005260206000209060040201600090919091909150600082015181600001556020820151816001015560408201518160020160006101000a81548173ffffffffffffffffffffffffffffffffffffffff021916908373ffffffffffffffffffffffffffffffffffffffff160217905550606082015181600301555050346000808282546104269190610906565b9250508190555050565b3373ffffffffffffffffffffffffffffffffffffffff16600160009054906101000a900473ffffffffffffffffffffffffffffffffffffffff1673ffffffffffffffffffffffffffffffffffffffff16146104c0576040517f08c379a00000000000000000000000000000000000000000000000000000000081526004016104b7906109a8565b60405180910390fd5b8073ffffffffffffffffffffffffffffffffffffffff166108fc479081150290604051600060405180830381858888f19350505050158015610506573d6000803e3d6000fd5b506000808190555050565b600160009054906101000a900473ffffffffffffffffffffffffffffffffffffffff1681565b6000600360008373ffffffffffffffffffffffffffffffffffffffff1673ffffffffffffffffffffffffffffffffffffffff168152602001908152602001600020600101549050919050565b60008054905090565b60008173ffffffffffffffffffffffffffffffffffffffff16319050919050565b60405180608001604052806000815260200160008152602001600073ffffffffffffffffffffffffffffffffffffffff168152602001600081525090565b600080fd5b6000819050919050565b610603816105f0565b811461060e57600080fd5b50565b600081359050610620816105fa565b92915050565b60006020828403121561063c5761063b6105eb565b5b600061064a84828501610611565b91505092915050565b61065c816105f0565b82525050565b600073ffffffffffffffffffffffffffffffffffffffff82169050919050565b600061068d82610662565b9050919050565b61069d81610682565b82525050565b6080820160008201516106b96000850182610653565b5060208201516106cc6020850182610653565b5060408201516106df6040850182610694565b5060608201516106f26060850182610653565b50505050565b600060808201905061070d60008301846106a3565b92915050565b600061071e82610662565b9050919050565b61072e81610713565b811461073957600080fd5b50565b60008135905061074b81610725565b92915050565b600060208284031215610767576107666105eb565b5b60006107758482850161073c565b91505092915050565b61078781610682565b82525050565b60006020820190506107a2600083018461077e565b92915050565b6107b181610682565b81146107bc57600080fd5b50565b6000813590506107ce816107a8565b92915050565b6000602082840312156107ea576107e96105eb565b5b60006107f8848285016107bf565b91505092915050565b61080a816105f0565b82525050565b60006020820190506108256000830184610801565b92915050565b600082825260208201905092915050565b7f4f7574206f662072616e67650000000000000000000000000000000000000000600082015250565b6000610872600c8361082b565b915061087d8261083c565b602082019050919050565b600060208201905081810360008301526108a181610865565b9050919050565b7f4e487b7100000000000000000000000000000000000000000000000000000000600052603260045260246000fd5b7f4e487b7100000000000000000000000000000000000000000000000000000000600052601160045260246000fd5b6000610911826105f0565b915061091c836105f0565b9250827fffffffffffffffffffffffffffffffffffffffffffffffffffffffffffffffff03821115610951576109506108d7565b5b828201905092915050565b7f4e6f206163636573730000000000000000000000000000000000000000000000600082015250565b600061099260098361082b565b915061099d8261095c565b602082019050919050565b600060208201905081810360008301526109c181610985565b905091905056fea264697066735822122099247928ced0254da8ed619289a3589c48e6d10ba05307ab2457b517f5d46ecf64736f6c634300080b0033",
  "immutableReferences": {},
  "source": "// SPDX-License-Identifier: MIT\npragma solidity >=0.4.22 <0.9.0;\n\ncontract Donations {\n  constructor() {\n    owner = msg.sender;\n  }\n\n  struct Donation{\n    uint sum;\n    uint sumAll;\n    address from;\n    uint timestamp;\n  }\n  uint sumFund;\n\n  address public owner;\n  \n  Donation[] donation; \n  mapping (address => Donation) donations;\n\n  //   \n  modifier requireOwner() {\n    require (owner == msg.sender, \"No access\");\n    _;\n  }\n\n  // \n  function makeDonation() public payable{\n    donations[msg.sender].sumAll += msg.value;\n    Donation memory newDonation = Donation(msg.value,donations[msg.sender].sumAll,msg.sender,block.timestamp);\n    donation.push(newDonation);\n    sumFund += msg.value;\n  }\n \n  //TO DO\n  //       (   )\n  function transferToOwner(address payable _to) public requireOwner { \n    _to.transfer(address(this).balance);\n    sumFund = 0;\n  }\n\n  //TO DO\n  //   \n  function getDonators(uint _index) public view returns (Donation memory){\n    require(_index < donation.length, \"Out of range\");\n    return donation[_index];\n  }\n\n  //  \n  function getBalanceFund() public view returns(uint){\n    return sumFund;\n  }\n\n  //   \n  function getDonatingAmount(address _addr)public view returns(uint){\n    return donations[_addr].sumAll;\n  }\n\n  //    \n  function getBalance(address _addr) public view returns(uint){\n    return _addr.balance;\n  }\n}\n",
  "sourcePath": "C:\\Users\\inin_\\Documents\\VS Code\\Donations\\contracts\\Donations.sol",
  "compiler": {
    "name": "solc",
    "version": "0.8.11+commit.d7f03943.Emscripten.clang"
  },
  "schemaVersion": "3.4.4",
  "updatedAt": "2022-03-06T18:08:11.977Z",
  "networkType": "ethereum",
  "devdoc": {
    "kind": "dev",
    "methods": {},
    "version": 1
  },
  "userdoc": {
    "kind": "user",
    "methods": {},
    "version": 1
  }
}