{
  "contractName": "Donations",
  "abi": [
    {
      "inputs": [],
      "stateMutability": "nonpayable",
      "type": "constructor"
    },
    {
      "inputs": [
        {
          "internalType": "address",
          "name": "",
          "type": "address"
        }
      ],
      "name": "balances",
      "outputs": [
        {
          "internalType": "uint256",
          "name": "allAmountUser",
          "type": "uint256"
        }
      ],
      "stateMutability": "view",
      "type": "function",
      "constant": true
    },
    {
      "inputs": [
        {
          "internalType": "uint256",
          "name": "",
          "type": "uint256"
        }
      ],
      "name": "donatorsAll",
      "outputs": [
        {
          "internalType": "address",
          "name": "",
          "type": "address"
        }
      ],
      "stateMutability": "view",
      "type": "function",
      "constant": true
    },
    {
      "inputs": [],
      "name": "owner",
      "outputs": [
        {
          "internalType": "address payable",
          "name": "",
          "type": "address"
        }
      ],
      "stateMutability": "view",
      "type": "function",
      "constant": true
    },
    {
      "inputs": [],
      "name": "makeDonation",
      "outputs": [],
      "stateMutability": "payable",
      "type": "function",
      "payable": true
    },
    {
      "inputs": [],
      "name": "transferToOwner",
      "outputs": [],
      "stateMutability": "nonpayable",
      "type": "function"
    },
    {
      "inputs": [],
      "name": "getDonators",
      "outputs": [
        {
          "internalType": "address[]",
          "name": "",
          "type": "address[]"
        }
      ],
      "stateMutability": "view",
      "type": "function",
      "constant": true
    }
  ],
  "bytecode": "0x608060405234801561001057600080fd5b503373ffffffffffffffffffffffffffffffffffffffff1660008054906101000a9050505061082b806100446000396000f3fe6080604052600436106100555760003560e01c806327e235e31461005a5780632d90ae941461009757806340ea0a94146100ae5780638da5cb5b146100b857806398f64118146100e3578063bf1482fa14610120575b600080fd5b34801561006657600080fd5b50610081600480360381019061007c9190610570565b61014b565b60405161008e91906105b6565b60405180910390f35b3480156100a357600080fd5b506100ac610169565b005b6100b661022a565b005b3480156100c457600080fd5b506100cd61041c565b6040516100da91906105f2565b60405180910390f35b3480156100ef57600080fd5b5061010a60048036038101906101059190610639565b610440565b6040516101179190610675565b60405180910390f35b34801561012c57600080fd5b5061013561047f565b604051610142919061074e565b60405180910390f35b60036020528060005260406000206000915090508060000154905081565b60008054906101000a900473ffffffffffffffffffffffffffffffffffffffff1673ffffffffffffffffffffffffffffffffffffffff163373ffffffffffffffffffffffffffffffffffffffff16146101c157600080fd5b60008054906101000a900473ffffffffffffffffffffffffffffffffffffffff1673ffffffffffffffffffffffffffffffffffffffff166108fc479081150290604051600060405180830381858888f19350505050158015610227573d6000803e3d6000fd5b50565b6000600360003373ffffffffffffffffffffffffffffffffffffffff1673ffffffffffffffffffffffffffffffffffffffff16815260200190815260200160002060000154905034600360003373ffffffffffffffffffffffffffffffffffffffff1673ffffffffffffffffffffffffffffffffffffffff16815260200190815260200160002060000160008282546102c3919061079f565b925050819055506002339080600181540180825580915050600190039060005260206000200160009091909190916101000a81548173ffffffffffffffffffffffffffffffffffffffff021916908373ffffffffffffffffffffffffffffffffffffffff160217905550600060405180604001604052803481526020013373ffffffffffffffffffffffffffffffffffffffff16815250905080600360003373ffffffffffffffffffffffffffffffffffffffff1673ffffffffffffffffffffffffffffffffffffffff16815260200190815260200160002060010160008481526020019081526020016000206000820151816000015560208201518160010160006101000a81548173ffffffffffffffffffffffffffffffffffffffff021916908373ffffffffffffffffffffffffffffffffffffffff16021790555090505060015434610412919061079f565b6001819055505050565b60008054906101000a900473ffffffffffffffffffffffffffffffffffffffff1681565b6002818154811061045057600080fd5b906000526020600020016000915054906101000a900473ffffffffffffffffffffffffffffffffffffffff1681565b6060600280548060200260200160405190810160405280929190818152602001828054801561050357602002820191906000526020600020905b8160009054906101000a900473ffffffffffffffffffffffffffffffffffffffff1673ffffffffffffffffffffffffffffffffffffffff16815260200190600101908083116104b9575b5050505050905090565b600080fd5b600073ffffffffffffffffffffffffffffffffffffffff82169050919050565b600061053d82610512565b9050919050565b61054d81610532565b811461055857600080fd5b50565b60008135905061056a81610544565b92915050565b6000602082840312156105865761058561050d565b5b60006105948482850161055b565b91505092915050565b6000819050919050565b6105b08161059d565b82525050565b60006020820190506105cb60008301846105a7565b92915050565b60006105dc82610512565b9050919050565b6105ec816105d1565b82525050565b600060208201905061060760008301846105e3565b92915050565b6106168161059d565b811461062157600080fd5b50565b6000813590506106338161060d565b92915050565b60006020828403121561064f5761064e61050d565b5b600061065d84828501610624565b91505092915050565b61066f81610532565b82525050565b600060208201905061068a6000830184610666565b92915050565b600081519050919050565b600082825260208201905092915050565b6000819050602082019050919050565b6106c581610532565b82525050565b60006106d783836106bc565b60208301905092915050565b6000602082019050919050565b60006106fb82610690565b610705818561069b565b9350610710836106ac565b8060005b8381101561074157815161072888826106cb565b9750610733836106e3565b925050600181019050610714565b5085935050505092915050565b6000602082019050818103600083015261076881846106f0565b905092915050565b7f4e487b7100000000000000000000000000000000000000000000000000000000600052601160045260246000fd5b60006107aa8261059d565b91506107b58361059d565b9250827fffffffffffffffffffffffffffffffffffffffffffffffffffffffffffffffff038211156107ea576107e9610770565b5b82820190509291505056fea2646970667358221220abc0df532671b7a6dadbafc4aa7c143ec28ecc613d466068742497f721e7048664736f6c634300080b0033",
  "immutableReferences": {},
  "source": "// SPDX-License-Identifier: MIT\npragma solidity >=0.4.22 <0.9.0;\n\ncontract Donations {\n  constructor() {\n    owner == msg.sender;\n  }\n\n  address payable public owner;\n\n  struct Donators{\n    uint amount;\n    address from;\n  }\n\n  struct Balance {\n    uint allAmountUser;\n    mapping(uint => Donators) donations;\n  }\n\n  uint allAmount;\n  address [] public  donatorsAll; \n\n  mapping(address => Balance) public balances;\n\n  // \n  function makeDonation() public payable{\n    \n    uint donationsNum = balances[msg.sender].allAmountUser;\n    balances[msg.sender].allAmountUser += msg.value;\n\n    donatorsAll.push(msg.sender);\n\n    Donators memory newDonators = Donators(\n      msg.value,\n      msg.sender\n    );\n\n    balances[msg.sender].donations[donationsNum] = newDonators;\n\n    allAmount = msg.value + allAmount;\n  }\n \n  //      \n  function transferToOwner() external{ \n    require(msg.sender == owner);\n    owner.transfer(address(this).balance);\n  }\n\n  //     \n  function getDonators() public view returns (address[] memory){\n    return donatorsAll;\n  }\n}\n",
  "sourcePath": "C:\\Users\\inin_\\Documents\\VS Code\\Donations\\contracts\\Donations.sol",
  "compiler": {
    "name": "solc",
    "version": "0.8.11+commit.d7f03943.Emscripten.clang"
  },
  "schemaVersion": "3.4.4",
  "updatedAt": "2022-03-01T03:29:27.834Z",
  "networkType": "ethereum",
  "devdoc": {
    "kind": "dev",
    "methods": {},
    "version": 1
  },
  "userdoc": {
    "kind": "user",
    "methods": {},
    "version": 1
  }
}