{
  "contractName": "Donations",
  "abi": [
    {
      "inputs": [],
      "stateMutability": "nonpayable",
      "type": "constructor"
    },
    {
      "inputs": [
        {
          "internalType": "uint256",
          "name": "",
          "type": "uint256"
        }
      ],
      "name": "donatorsAll",
      "outputs": [
        {
          "internalType": "address",
          "name": "",
          "type": "address"
        }
      ],
      "stateMutability": "view",
      "type": "function",
      "constant": true
    },
    {
      "inputs": [],
      "name": "owner",
      "outputs": [
        {
          "internalType": "address",
          "name": "",
          "type": "address"
        }
      ],
      "stateMutability": "view",
      "type": "function",
      "constant": true
    },
    {
      "inputs": [],
      "name": "makeDonation",
      "outputs": [],
      "stateMutability": "payable",
      "type": "function",
      "payable": true
    },
    {
      "inputs": [
        {
          "internalType": "address payable",
          "name": "_to",
          "type": "address"
        }
      ],
      "name": "transferToOwner",
      "outputs": [],
      "stateMutability": "nonpayable",
      "type": "function"
    },
    {
      "inputs": [
        {
          "internalType": "uint256",
          "name": "_index",
          "type": "uint256"
        }
      ],
      "name": "getDonations",
      "outputs": [
        {
          "components": [
            {
              "internalType": "uint256",
              "name": "sum",
              "type": "uint256"
            },
            {
              "internalType": "uint256",
              "name": "sumAll",
              "type": "uint256"
            },
            {
              "internalType": "address",
              "name": "from",
              "type": "address"
            },
            {
              "internalType": "uint256",
              "name": "timestamp",
              "type": "uint256"
            }
          ],
          "internalType": "struct Donations.Donation",
          "name": "",
          "type": "tuple"
        }
      ],
      "stateMutability": "view",
      "type": "function",
      "constant": true
    },
    {
      "inputs": [],
      "name": "getDonatorsAll",
      "outputs": [
        {
          "internalType": "address[]",
          "name": "",
          "type": "address[]"
        }
      ],
      "stateMutability": "view",
      "type": "function",
      "constant": true
    },
    {
      "inputs": [
        {
          "internalType": "address",
          "name": "_addr",
          "type": "address"
        }
      ],
      "name": "getDonatingAmount",
      "outputs": [
        {
          "internalType": "uint256",
          "name": "",
          "type": "uint256"
        }
      ],
      "stateMutability": "view",
      "type": "function",
      "constant": true
    },
    {
      "inputs": [
        {
          "internalType": "address",
          "name": "_addr",
          "type": "address"
        }
      ],
      "name": "getBalanceAnyAddress",
      "outputs": [
        {
          "internalType": "uint256",
          "name": "accountBalance",
          "type": "uint256"
        }
      ],
      "stateMutability": "view",
      "type": "function",
      "constant": true
    }
  ],
  "bytecode": "0x608060405234801561001057600080fd5b50336000806101000a81548173ffffffffffffffffffffffffffffffffffffffff021916908373ffffffffffffffffffffffffffffffffffffffff160217905550610c22806100606000396000f3fe60806040526004361061007a5760003560e01c80638da5cb5b1161004e5780638da5cb5b1461012c57806398f6411814610157578063b31c492914610194578063f8cc06e2146101d15761007a565b80624cd7261461007f57806340ea0a94146100bc578063596d9ce2146100c6578063812d504d14610103575b600080fd5b34801561008b57600080fd5b506100a660048036038101906100a191906107a1565b6101fc565b6040516100b391906107e7565b60405180910390f35b6100c461021d565b005b3480156100d257600080fd5b506100ed60048036038101906100e8919061082e565b6103ec565b6040516100fa91906108ce565b60405180910390f35b34801561010f57600080fd5b5061012a60048036038101906101259190610927565b6104e3565b005b34801561013857600080fd5b506101416105c3565b60405161014e9190610963565b60405180910390f35b34801561016357600080fd5b5061017e6004803603810190610179919061082e565b6105e7565b60405161018b9190610963565b60405180910390f35b3480156101a057600080fd5b506101bb60048036038101906101b691906107a1565b610626565b6040516101c891906107e7565b60405180910390f35b3480156101dd57600080fd5b506101e6610672565b6040516101f39190610a2d565b60405180910390f35b60008173ffffffffffffffffffffffffffffffffffffffff16319050919050565b6001339080600181540180825580915050600190039060005260206000200160009091909190916101000a81548173ffffffffffffffffffffffffffffffffffffffff021916908373ffffffffffffffffffffffffffffffffffffffff16021790555034600360003373ffffffffffffffffffffffffffffffffffffffff1673ffffffffffffffffffffffffffffffffffffffff16815260200190815260200160002060010160008282546102d29190610a7e565b9250508190555060006040518060800160405280348152602001600360003373ffffffffffffffffffffffffffffffffffffffff1673ffffffffffffffffffffffffffffffffffffffff1681526020019081526020016000206001015481526020013373ffffffffffffffffffffffffffffffffffffffff1681526020014281525090506002819080600181540180825580915050600190039060005260206000209060040201600090919091909150600082015181600001556020820151816001015560408201518160020160006101000a81548173ffffffffffffffffffffffffffffffffffffffff021916908373ffffffffffffffffffffffffffffffffffffffff16021790555060608201518160030155505050565b6103f4610700565b600280549050821061043b576040517f08c379a000000000000000000000000000000000000000000000000000000000815260040161043290610b31565b60405180910390fd5b6002828154811061044f5761044e610b51565b5b906000526020600020906004020160405180608001604052908160008201548152602001600182015481526020016002820160009054906101000a900473ffffffffffffffffffffffffffffffffffffffff1673ffffffffffffffffffffffffffffffffffffffff1673ffffffffffffffffffffffffffffffffffffffff1681526020016003820154815250509050919050565b3373ffffffffffffffffffffffffffffffffffffffff1660008054906101000a900473ffffffffffffffffffffffffffffffffffffffff1673ffffffffffffffffffffffffffffffffffffffff1614610571576040517f08c379a000000000000000000000000000000000000000000000000000000000815260040161056890610bcc565b60405180910390fd5b8073ffffffffffffffffffffffffffffffffffffffff166108fc610594306101fc565b9081150290604051600060405180830381858888f193505050501580156105bf573d6000803e3d6000fd5b5050565b60008054906101000a900473ffffffffffffffffffffffffffffffffffffffff1681565b600181815481106105f757600080fd5b906000526020600020016000915054906101000a900473ffffffffffffffffffffffffffffffffffffffff1681565b6000600360008373ffffffffffffffffffffffffffffffffffffffff1673ffffffffffffffffffffffffffffffffffffffff168152602001908152602001600020600101549050919050565b606060018054806020026020016040519081016040528092919081815260200182805480156106f657602002820191906000526020600020905b8160009054906101000a900473ffffffffffffffffffffffffffffffffffffffff1673ffffffffffffffffffffffffffffffffffffffff16815260200190600101908083116106ac575b5050505050905090565b60405180608001604052806000815260200160008152602001600073ffffffffffffffffffffffffffffffffffffffff168152602001600081525090565b600080fd5b600073ffffffffffffffffffffffffffffffffffffffff82169050919050565b600061076e82610743565b9050919050565b61077e81610763565b811461078957600080fd5b50565b60008135905061079b81610775565b92915050565b6000602082840312156107b7576107b661073e565b5b60006107c58482850161078c565b91505092915050565b6000819050919050565b6107e1816107ce565b82525050565b60006020820190506107fc60008301846107d8565b92915050565b61080b816107ce565b811461081657600080fd5b50565b60008135905061082881610802565b92915050565b6000602082840312156108445761084361073e565b5b600061085284828501610819565b91505092915050565b610864816107ce565b82525050565b61087381610763565b82525050565b60808201600082015161088f600085018261085b565b5060208201516108a2602085018261085b565b5060408201516108b5604085018261086a565b5060608201516108c8606085018261085b565b50505050565b60006080820190506108e36000830184610879565b92915050565b60006108f482610743565b9050919050565b610904816108e9565b811461090f57600080fd5b50565b600081359050610921816108fb565b92915050565b60006020828403121561093d5761093c61073e565b5b600061094b84828501610912565b91505092915050565b61095d81610763565b82525050565b60006020820190506109786000830184610954565b92915050565b600081519050919050565b600082825260208201905092915050565b6000819050602082019050919050565b60006109b6838361086a565b60208301905092915050565b6000602082019050919050565b60006109da8261097e565b6109e48185610989565b93506109ef8361099a565b8060005b83811015610a20578151610a0788826109aa565b9750610a12836109c2565b9250506001810190506109f3565b5085935050505092915050565b60006020820190508181036000830152610a4781846109cf565b905092915050565b7f4e487b7100000000000000000000000000000000000000000000000000000000600052601160045260246000fd5b6000610a89826107ce565b9150610a94836107ce565b9250827fffffffffffffffffffffffffffffffffffffffffffffffffffffffffffffffff03821115610ac957610ac8610a4f565b5b828201905092915050565b600082825260208201905092915050565b7f4f7574206f662072616e67650000000000000000000000000000000000000000600082015250565b6000610b1b600c83610ad4565b9150610b2682610ae5565b602082019050919050565b60006020820190508181036000830152610b4a81610b0e565b9050919050565b7f4e487b7100000000000000000000000000000000000000000000000000000000600052603260045260246000fd5b7f4e6f206163636573730000000000000000000000000000000000000000000000600082015250565b6000610bb6600983610ad4565b9150610bc182610b80565b602082019050919050565b60006020820190508181036000830152610be581610ba9565b905091905056fea2646970667358221220a6081bf54bbac7c99d52cb1cc0d6263b10db08fa341f17d82b955bc55fa6938c64736f6c634300080b0033",
  "immutableReferences": {},
  "source": "// SPDX-License-Identifier: MIT\npragma solidity >=0.4.22 <0.9.0;\n\ncontract Donations {\n  constructor() {\n    owner = msg.sender;\n  }\n\n  struct Donation{\n    uint sum;\n    uint sumAll;\n    address from;\n    uint timestamp;\n  }\n  //uint sumFund;\n  \n  address public owner;\n  address [] public donatorsAll;\n  \n  Donation[] donation; \n  mapping (address => Donation) donations;\n\n  //   \n  modifier requireOwner() {\n    require (owner == msg.sender, \"No access\");\n    _;\n  }\n\n  // \n  function makeDonation() public payable{\n    donatorsAll.push(msg.sender);\n\n    donations[msg.sender].sumAll += msg.value;\n    Donation memory newDonation = Donation(msg.value,donations[msg.sender].sumAll,msg.sender,block.timestamp);\n    donation.push(newDonation);\n  }\n \n  //TO DO\n  //       (   )\n  function transferToOwner(address payable _to) public requireOwner { \n    _to.transfer(getBalanceAnyAddress(address(this)));\n  }\n\n  //TO DO (  )\n  //    \n  function getDonations(uint _index) public view returns (Donation memory){\n    require(_index < donation.length, \"Out of range\");\n    return donation[_index];\n  }\n\n  //   \n  function getDonatorsAll() public view returns (address[] memory){\n   return donatorsAll;\n  }\n\n  //   \n  function getDonatingAmount(address _addr)public view returns(uint){\n    return donations[_addr].sumAll;\n  }\n\n  //     \n  function getBalanceAnyAddress(address _addr) public view returns(uint accountBalance){\n    return accountBalance = _addr.balance;\n  }\n\n} \n",
  "sourcePath": "C:\\Users\\inin_\\Documents\\VS Code\\Donations\\contracts\\Donations.sol",
  "compiler": {
    "name": "solc",
    "version": "0.8.11+commit.d7f03943.Emscripten.clang"
  },
  "schemaVersion": "3.4.4",
  "updatedAt": "2022-03-07T15:00:16.905Z",
  "networkType": "ethereum",
  "devdoc": {
    "kind": "dev",
    "methods": {},
    "version": 1
  },
  "userdoc": {
    "kind": "user",
    "methods": {},
    "version": 1
  }
}