{
  "contractName": "Donations",
  "abi": [
    {
      "inputs": [],
      "stateMutability": "nonpayable",
      "type": "constructor"
    },
    {
      "inputs": [
        {
          "internalType": "address",
          "name": "",
          "type": "address"
        }
      ],
      "name": "balances",
      "outputs": [
        {
          "internalType": "uint256",
          "name": "allAmountUser",
          "type": "uint256"
        }
      ],
      "stateMutability": "view",
      "type": "function"
    },
    {
      "inputs": [
        {
          "internalType": "uint256",
          "name": "",
          "type": "uint256"
        }
      ],
      "name": "donatorsAll",
      "outputs": [
        {
          "internalType": "address",
          "name": "",
          "type": "address"
        }
      ],
      "stateMutability": "view",
      "type": "function"
    },
    {
      "inputs": [],
      "name": "owner",
      "outputs": [
        {
          "internalType": "address payable",
          "name": "",
          "type": "address"
        }
      ],
      "stateMutability": "view",
      "type": "function"
    },
    {
      "inputs": [],
      "name": "makeDonation",
      "outputs": [],
      "stateMutability": "payable",
      "type": "function"
    },
    {
      "inputs": [],
      "name": "transferToOwner",
      "outputs": [],
      "stateMutability": "nonpayable",
      "type": "function"
    },
    {
      "inputs": [],
      "name": "getDonators",
      "outputs": [
        {
          "internalType": "address[]",
          "name": "",
          "type": "address[]"
        }
      ],
      "stateMutability": "view",
      "type": "function"
    },
    {
      "inputs": [],
      "name": "getBalanceFund",
      "outputs": [
        {
          "internalType": "uint256",
          "name": "",
          "type": "uint256"
        }
      ],
      "stateMutability": "view",
      "type": "function"
    }
  ],
  "bytecode": "0x608060405234801561001057600080fd5b503373ffffffffffffffffffffffffffffffffffffffff1660008054906101000a905050506108b1806100446000396000f3fe6080604052600436106100705760003560e01c80638da5cb5b1161004e5780638da5cb5b146100d357806398f64118146100fe578063bf1482fa1461013b578063dd5a2f6c1461016657610070565b806327e235e3146100755780632d90ae94146100b257806340ea0a94146100c9575b600080fd5b34801561008157600080fd5b5061009c600480360381019061009791906105f6565b610191565b6040516100a9919061063c565b60405180910390f35b3480156100be57600080fd5b506100c76101af565b005b6100d1610270565b005b3480156100df57600080fd5b506100e8610462565b6040516100f59190610678565b60405180910390f35b34801561010a57600080fd5b50610125600480360381019061012091906106bf565b610486565b60405161013291906106fb565b60405180910390f35b34801561014757600080fd5b506101506104c5565b60405161015d91906107d4565b60405180910390f35b34801561017257600080fd5b5061017b610553565b604051610188919061063c565b60405180910390f35b60036020528060005260406000206000915090508060000154905081565b60008054906101000a900473ffffffffffffffffffffffffffffffffffffffff1673ffffffffffffffffffffffffffffffffffffffff163373ffffffffffffffffffffffffffffffffffffffff161461020757600080fd5b60008054906101000a900473ffffffffffffffffffffffffffffffffffffffff1673ffffffffffffffffffffffffffffffffffffffff166108fc479081150290604051600060405180830381858888f1935050505015801561026d573d6000803e3d6000fd5b50565b6000600360003373ffffffffffffffffffffffffffffffffffffffff1673ffffffffffffffffffffffffffffffffffffffff16815260200190815260200160002060000154905034600360003373ffffffffffffffffffffffffffffffffffffffff1673ffffffffffffffffffffffffffffffffffffffff16815260200190815260200160002060000160008282546103099190610825565b925050819055506002339080600181540180825580915050600190039060005260206000200160009091909190916101000a81548173ffffffffffffffffffffffffffffffffffffffff021916908373ffffffffffffffffffffffffffffffffffffffff160217905550600060405180604001604052803481526020013373ffffffffffffffffffffffffffffffffffffffff16815250905080600360003373ffffffffffffffffffffffffffffffffffffffff1673ffffffffffffffffffffffffffffffffffffffff16815260200190815260200160002060010160008481526020019081526020016000206000820151816000015560208201518160010160006101000a81548173ffffffffffffffffffffffffffffffffffffffff021916908373ffffffffffffffffffffffffffffffffffffffff160217905550905050600154346104589190610825565b6001819055505050565b60008054906101000a900473ffffffffffffffffffffffffffffffffffffffff1681565b6002818154811061049657600080fd5b906000526020600020016000915054906101000a900473ffffffffffffffffffffffffffffffffffffffff1681565b6060600280548060200260200160405190810160405280929190818152602001828054801561054957602002820191906000526020600020905b8160009054906101000a900473ffffffffffffffffffffffffffffffffffffffff1673ffffffffffffffffffffffffffffffffffffffff16815260200190600101908083116104ff575b5050505050905090565b60008060009054906101000a900473ffffffffffffffffffffffffffffffffffffffff1673ffffffffffffffffffffffffffffffffffffffff1631905090565b600080fd5b600073ffffffffffffffffffffffffffffffffffffffff82169050919050565b60006105c382610598565b9050919050565b6105d3816105b8565b81146105de57600080fd5b50565b6000813590506105f0816105ca565b92915050565b60006020828403121561060c5761060b610593565b5b600061061a848285016105e1565b91505092915050565b6000819050919050565b61063681610623565b82525050565b6000602082019050610651600083018461062d565b92915050565b600061066282610598565b9050919050565b61067281610657565b82525050565b600060208201905061068d6000830184610669565b92915050565b61069c81610623565b81146106a757600080fd5b50565b6000813590506106b981610693565b92915050565b6000602082840312156106d5576106d4610593565b5b60006106e3848285016106aa565b91505092915050565b6106f5816105b8565b82525050565b600060208201905061071060008301846106ec565b92915050565b600081519050919050565b600082825260208201905092915050565b6000819050602082019050919050565b61074b816105b8565b82525050565b600061075d8383610742565b60208301905092915050565b6000602082019050919050565b600061078182610716565b61078b8185610721565b935061079683610732565b8060005b838110156107c75781516107ae8882610751565b97506107b983610769565b92505060018101905061079a565b5085935050505092915050565b600060208201905081810360008301526107ee8184610776565b905092915050565b7f4e487b7100000000000000000000000000000000000000000000000000000000600052601160045260246000fd5b600061083082610623565b915061083b83610623565b9250827fffffffffffffffffffffffffffffffffffffffffffffffffffffffffffffffff038211156108705761086f6107f6565b5b82820190509291505056fea2646970667358221220e57ecd5e90b3a6d1af7b762ea26f4f5257aeb4fee801b211ef370b7d00e3aaa164736f6c634300080b0033",
  "immutableReferences": {},
  "source": "// SPDX-License-Identifier: MIT\npragma solidity >=0.4.22 <0.9.0;\n\ncontract Donations {\n\n  address payable public owner;\n  constructor() {\n    owner == msg.sender;\n  }\n\n  struct Donators{\n    uint sum;\n    address from;\n  }\n\n  struct Balance {\n    uint allAmountUser;\n    mapping(uint => Donators) donations;\n  }\n\n  uint allAmount;\n  address [] public  donatorsAll; \n\n  mapping(address => Balance) public balances;\n\n  // \n  function makeDonation() public payable{\n    \n    uint donationsNum = balances[msg.sender].allAmountUser;\n    balances[msg.sender].allAmountUser += msg.value;\n\n    donatorsAll.push(msg.sender);\n\n    Donators memory newDonators = Donators(\n      msg.value,\n      msg.sender\n    );\n\n    balances[msg.sender].donations[donationsNum] = newDonators;\n\n    allAmount = msg.value + allAmount;\n  }\n \n  //      \n  function transferToOwner() external{ \n    require(msg.sender == owner);\n    owner.transfer(address(this).balance);\n  }\n\n  //     \n  function getDonators() public view returns (address[] memory){\n    return donatorsAll;\n  }\n\n  //  \n  function getBalanceFund() public view returns(uint){\n    return owner.balance;\n  }\n}\n",
  "sourcePath": "C:\\Users\\inin_\\Documents\\VS Code\\Donations\\contracts\\Donations.sol",
  "compiler": {
    "name": "solc",
    "version": "0.8.11+commit.d7f03943.Emscripten.clang"
  },
  "schemaVersion": "3.4.4",
  "updatedAt": "2022-03-01T04:54:24.376Z",
  "devdoc": {
    "kind": "dev",
    "methods": {},
    "version": 1
  },
  "userdoc": {
    "kind": "user",
    "methods": {},
    "version": 1
  }
}