{
  "contractName": "Donations",
  "abi": [
    {
      "inputs": [],
      "stateMutability": "nonpayable",
      "type": "constructor"
    },
    {
      "inputs": [
        {
          "internalType": "uint256",
          "name": "",
          "type": "uint256"
        }
      ],
      "name": "donatorsAll",
      "outputs": [
        {
          "internalType": "address",
          "name": "",
          "type": "address"
        }
      ],
      "stateMutability": "view",
      "type": "function",
      "constant": true
    },
    {
      "inputs": [],
      "name": "owner",
      "outputs": [
        {
          "internalType": "address",
          "name": "",
          "type": "address"
        }
      ],
      "stateMutability": "view",
      "type": "function",
      "constant": true
    },
    {
      "inputs": [],
      "name": "makeDonation",
      "outputs": [],
      "stateMutability": "payable",
      "type": "function",
      "payable": true
    },
    {
      "inputs": [
        {
          "internalType": "address payable",
          "name": "_to",
          "type": "address"
        }
      ],
      "name": "transferToOwner",
      "outputs": [],
      "stateMutability": "nonpayable",
      "type": "function"
    },
    {
      "inputs": [
        {
          "internalType": "uint256",
          "name": "_index",
          "type": "uint256"
        }
      ],
      "name": "getDonations",
      "outputs": [
        {
          "components": [
            {
              "internalType": "uint256",
              "name": "sum",
              "type": "uint256"
            },
            {
              "internalType": "uint256",
              "name": "sumAll",
              "type": "uint256"
            },
            {
              "internalType": "address",
              "name": "from",
              "type": "address"
            },
            {
              "internalType": "uint256",
              "name": "timestamp",
              "type": "uint256"
            }
          ],
          "internalType": "struct Donations.Donation",
          "name": "",
          "type": "tuple"
        }
      ],
      "stateMutability": "view",
      "type": "function",
      "constant": true
    },
    {
      "inputs": [],
      "name": "getDonatorsAll",
      "outputs": [
        {
          "internalType": "address[]",
          "name": "",
          "type": "address[]"
        }
      ],
      "stateMutability": "view",
      "type": "function",
      "constant": true
    },
    {
      "inputs": [],
      "name": "getBalanceFund",
      "outputs": [
        {
          "internalType": "uint256",
          "name": "",
          "type": "uint256"
        }
      ],
      "stateMutability": "view",
      "type": "function",
      "constant": true
    },
    {
      "inputs": [
        {
          "internalType": "address",
          "name": "_addr",
          "type": "address"
        }
      ],
      "name": "getDonatingAmount",
      "outputs": [
        {
          "internalType": "uint256",
          "name": "",
          "type": "uint256"
        }
      ],
      "stateMutability": "view",
      "type": "function",
      "constant": true
    },
    {
      "inputs": [
        {
          "internalType": "address",
          "name": "_addr",
          "type": "address"
        }
      ],
      "name": "getBalance",
      "outputs": [
        {
          "internalType": "uint256",
          "name": "",
          "type": "uint256"
        }
      ],
      "stateMutability": "view",
      "type": "function",
      "constant": true
    }
  ],
  "bytecode": "0x608060405234801561001057600080fd5b5033600160006101000a81548173ffffffffffffffffffffffffffffffffffffffff021916908373ffffffffffffffffffffffffffffffffffffffff160217905550610cb6806100616000396000f3fe6080604052600436106100865760003560e01c806398f641181161005957806398f6411814610126578063b31c492914610163578063dd5a2f6c146101a0578063f8b2cb4f146101cb578063f8cc06e21461020857610086565b806340ea0a941461008b578063596d9ce214610095578063812d504d146100d25780638da5cb5b146100fb575b600080fd5b610093610233565b005b3480156100a157600080fd5b506100bc60048036038101906100b7919061080d565b61041a565b6040516100c991906108df565b60405180910390f35b3480156100de57600080fd5b506100f960048036038101906100f49190610938565b610511565b005b34801561010757600080fd5b5061011061062b565b60405161011d9190610974565b60405180910390f35b34801561013257600080fd5b5061014d6004803603810190610148919061080d565b610651565b60405161015a9190610974565b60405180910390f35b34801561016f57600080fd5b5061018a600480360381019061018591906109bb565b610690565b60405161019791906109f7565b60405180910390f35b3480156101ac57600080fd5b506101b56106dc565b6040516101c291906109f7565b60405180910390f35b3480156101d757600080fd5b506101f260048036038101906101ed91906109bb565b6106e5565b6040516101ff91906109f7565b60405180910390f35b34801561021457600080fd5b5061021d610706565b60405161022a9190610ac1565b60405180910390f35b6002339080600181540180825580915050600190039060005260206000200160009091909190916101000a81548173ffffffffffffffffffffffffffffffffffffffff021916908373ffffffffffffffffffffffffffffffffffffffff16021790555034600460003373ffffffffffffffffffffffffffffffffffffffff1673ffffffffffffffffffffffffffffffffffffffff16815260200190815260200160002060010160008282546102e89190610b12565b9250508190555060006040518060800160405280348152602001600460003373ffffffffffffffffffffffffffffffffffffffff1673ffffffffffffffffffffffffffffffffffffffff1681526020019081526020016000206001015481526020013373ffffffffffffffffffffffffffffffffffffffff1681526020014281525090506003819080600181540180825580915050600190039060005260206000209060040201600090919091909150600082015181600001556020820151816001015560408201518160020160006101000a81548173ffffffffffffffffffffffffffffffffffffffff021916908373ffffffffffffffffffffffffffffffffffffffff160217905550606082015181600301555050346000808282546104109190610b12565b9250508190555050565b610422610794565b6003805490508210610469576040517f08c379a000000000000000000000000000000000000000000000000000000000815260040161046090610bc5565b60405180910390fd5b6003828154811061047d5761047c610be5565b5b906000526020600020906004020160405180608001604052908160008201548152602001600182015481526020016002820160009054906101000a900473ffffffffffffffffffffffffffffffffffffffff1673ffffffffffffffffffffffffffffffffffffffff1673ffffffffffffffffffffffffffffffffffffffff1681526020016003820154815250509050919050565b3373ffffffffffffffffffffffffffffffffffffffff16600160009054906101000a900473ffffffffffffffffffffffffffffffffffffffff1673ffffffffffffffffffffffffffffffffffffffff16146105a1576040517f08c379a000000000000000000000000000000000000000000000000000000000815260040161059890610c60565b60405180910390fd5b8073ffffffffffffffffffffffffffffffffffffffff166108fc600160009054906101000a900473ffffffffffffffffffffffffffffffffffffffff1673ffffffffffffffffffffffffffffffffffffffff16319081150290604051600060405180830381858888f19350505050158015610620573d6000803e3d6000fd5b506000808190555050565b600160009054906101000a900473ffffffffffffffffffffffffffffffffffffffff1681565b6002818154811061066157600080fd5b906000526020600020016000915054906101000a900473ffffffffffffffffffffffffffffffffffffffff1681565b6000600460008373ffffffffffffffffffffffffffffffffffffffff1673ffffffffffffffffffffffffffffffffffffffff168152602001908152602001600020600101549050919050565b60008054905090565b60008173ffffffffffffffffffffffffffffffffffffffff16319050919050565b6060600280548060200260200160405190810160405280929190818152602001828054801561078a57602002820191906000526020600020905b8160009054906101000a900473ffffffffffffffffffffffffffffffffffffffff1673ffffffffffffffffffffffffffffffffffffffff1681526020019060010190808311610740575b5050505050905090565b60405180608001604052806000815260200160008152602001600073ffffffffffffffffffffffffffffffffffffffff168152602001600081525090565b600080fd5b6000819050919050565b6107ea816107d7565b81146107f557600080fd5b50565b600081359050610807816107e1565b92915050565b600060208284031215610823576108226107d2565b5b6000610831848285016107f8565b91505092915050565b610843816107d7565b82525050565b600073ffffffffffffffffffffffffffffffffffffffff82169050919050565b600061087482610849565b9050919050565b61088481610869565b82525050565b6080820160008201516108a0600085018261083a565b5060208201516108b3602085018261083a565b5060408201516108c6604085018261087b565b5060608201516108d9606085018261083a565b50505050565b60006080820190506108f4600083018461088a565b92915050565b600061090582610849565b9050919050565b610915816108fa565b811461092057600080fd5b50565b6000813590506109328161090c565b92915050565b60006020828403121561094e5761094d6107d2565b5b600061095c84828501610923565b91505092915050565b61096e81610869565b82525050565b60006020820190506109896000830184610965565b92915050565b61099881610869565b81146109a357600080fd5b50565b6000813590506109b58161098f565b92915050565b6000602082840312156109d1576109d06107d2565b5b60006109df848285016109a6565b91505092915050565b6109f1816107d7565b82525050565b6000602082019050610a0c60008301846109e8565b92915050565b600081519050919050565b600082825260208201905092915050565b6000819050602082019050919050565b6000610a4a838361087b565b60208301905092915050565b6000602082019050919050565b6000610a6e82610a12565b610a788185610a1d565b9350610a8383610a2e565b8060005b83811015610ab4578151610a9b8882610a3e565b9750610aa683610a56565b925050600181019050610a87565b5085935050505092915050565b60006020820190508181036000830152610adb8184610a63565b905092915050565b7f4e487b7100000000000000000000000000000000000000000000000000000000600052601160045260246000fd5b6000610b1d826107d7565b9150610b28836107d7565b9250827fffffffffffffffffffffffffffffffffffffffffffffffffffffffffffffffff03821115610b5d57610b5c610ae3565b5b828201905092915050565b600082825260208201905092915050565b7f4f7574206f662072616e67650000000000000000000000000000000000000000600082015250565b6000610baf600c83610b68565b9150610bba82610b79565b602082019050919050565b60006020820190508181036000830152610bde81610ba2565b9050919050565b7f4e487b7100000000000000000000000000000000000000000000000000000000600052603260045260246000fd5b7f4e6f206163636573730000000000000000000000000000000000000000000000600082015250565b6000610c4a600983610b68565b9150610c5582610c14565b602082019050919050565b60006020820190508181036000830152610c7981610c3d565b905091905056fea2646970667358221220c897841f622ad5d1682cdc2ed2cd65ee076150e2ffa245cf4adfa1730e03f62a64736f6c634300080b0033",
  "immutableReferences": {},
  "source": "// SPDX-License-Identifier: MIT\npragma solidity >=0.4.22 <0.9.0;\n\ncontract Donations {\n  constructor() {\n    owner = msg.sender;\n  }\n\n  struct Donation{\n    uint sum;\n    uint sumAll;\n    address from;\n    uint timestamp;\n  }\n  uint sumFund;\n\n  address public owner;\n  address [] public donatorsAll;\n  \n  Donation[] donation; \n  mapping (address => Donation) donations;\n\n  //   \n  modifier requireOwner() {\n    require (owner == msg.sender, \"No access\");\n    _;\n  }\n\n  // \n  function makeDonation() public payable{\n    donatorsAll.push(msg.sender);\n\n    donations[msg.sender].sumAll += msg.value;\n    Donation memory newDonation = Donation(msg.value,donations[msg.sender].sumAll,msg.sender,block.timestamp);\n    donation.push(newDonation);\n    \n    sumFund += msg.value;\n  }\n \n  //       (   )\n  function transferToOwner(address payable _to) public requireOwner { \n    _to.transfer(address(owner).balance);\n    sumFund = 0;\n  }\n\n  //    \n  function getDonations(uint _index) public view returns (Donation memory){\n    require(_index < donation.length, \"Out of range\");\n    return donation[_index];\n  }\n\n  //   \n  function getDonatorsAll() public view returns (address[] memory){\n   return donatorsAll;\n  }\n\n  //  \n  function getBalanceFund() public view returns(uint){\n    return sumFund;\n  }\n\n  //   \n  function getDonatingAmount(address _addr)public view returns(uint){\n    return donations[_addr].sumAll;\n  }\n\n  //    \n  function getBalance(address _addr) public view returns(uint){\n    return _addr.balance;\n  }\n}\n",
  "sourcePath": "C:\\Users\\inin_\\Documents\\VS Code\\Donations\\contracts\\Donations.sol",
  "compiler": {
    "name": "solc",
    "version": "0.8.11+commit.d7f03943.Emscripten.clang"
  },
  "schemaVersion": "3.4.4",
  "updatedAt": "2022-03-06T19:49:49.856Z",
  "networkType": "ethereum",
  "devdoc": {
    "kind": "dev",
    "methods": {},
    "version": 1
  },
  "userdoc": {
    "kind": "user",
    "methods": {},
    "version": 1
  }
}